:020000040800F2
:10000000D0080020CD0000082D0B0008290B0008A7
:1000100000000000000000000000000000000000E0
:10002000000000000000000000000000C50D0008F6
:100030000000000000000000A90B00087512000875
:10004000DF000008DF000008DF000008DF00000814
:10005000DF000008A10A0008DF000008DF00000838
:1000600000000000DF000008DF000008DF000008DB
:10007000DF000008DF000008DF000008F9120008B8
:10008000691300080000000000000000DF00000805
:10009000DF000008DF000008DF000008DF000008C4
:1000A000DF000008DF000008DF00000885140008FA
:1000B000DF000008DF0000080348854600F01EFB53
:1000C00000480047753B0008D008002004488047DE
:1000D00004480047FEE7FEE7FEE7FEE7FEE7FEE72F
:1000E0007D120008B900000830B50B46014600201B
:1000F0002022012409E00D46D5409D4205D31D462E
:100100009540491B2546954040191546521E002D25
:10011000F1DC30BD70B500242546002801DA012449
:100120004042002901DA01254942FFF7DDFFAC42D8
:1001300000D04042002C00D0494270BD03460B4322
:100140009B0703D009E008C9121F08C0042AFAD28D
:1001500003E00B780370401C491C521EF9D2704713
:10016000D2B201E00270401C491EFBD2704700224F
:10017000F6E710B513460A4604461946FFF7F0FFA6
:10018000204610BDF0B507460846584087B0C00F5E
:10019000049048000E46590040084908BC1A88419E
:1001A00005D2384631461E4617460B4602465800D1
:1001B000400810434CD0300D039040055900400DCD
:1001C000490D0590401A0290402872DA1803012167
:1001D000000B09050843019004980092002805D0FF
:1001E00001995242002088410092019002984021DA
:1001F0000A1A0199009800F0B9F905460C466B46B9
:1002000007CB00F0D4F9C0197141039A0E0D0023F9
:10021000D71756401A467A40164344D0049A002A0B
:100220002DD0029A012A039A15DC1205C01A9141B9
:1002300001263605001C7141D20F059ED20700939E
:10024000019202962A46234600F0D1F907B0F0BD8C
:1002500038463146FAE71605224A0F46B218C01A48
:10026000B74101210905001C4F4100187F4111468B
:1002700018187941E20F10436D19644113E0E20749
:100280006D0815436408C2071443039A012612053A
:10029000C01A91413605001C7141CE074008304319
:1002A0004908C01851412A46234600F093F9CDE78A
:1002B000FFE7049801224000C117121A00238B4166
:1002C00004983146C417381AA141EEE730B401242E
:1002D000E407634030BC55E730B40124E4076140D3
:1002E00030BC4FE70000E0FFF0B51FB488B00B99B9
:1002F0000998002448400999C00F4900490809910C
:10030000C0070B990090490049080B91099908987A
:10031000A64608431CD00B990A98084318D00998A0
:1003200001244000420D4800410D099824050003B6
:10033000000B204309900B980003000B20430B9007
:1003400050181C494018002201901446104605E040
:10035000002001460DB0F0BD032801DA034600E09D
:1003600003239C46C11A0AAE0AE05F0008ADED5BAC
:100370004F00F75B7D430027AA187C41491C5B1E98
:100380006145F2DD410004AB5A522104120C0A43CC
:10039000240C401C0828DFDB01980290009970466D
:1003A00001910090059B049A0799069800F01FF9A7
:1003B000D0E700000DFCFFFFF0B50C465C4085B0B7
:1003C000E40FE40703944C000026640859009446A7
:1003D000490802460296224321D062460A431ED0B3
:1003E0006200570D4A000E032303550D01240246F7
:1003F0002C492405781B1B0B360B4018234326433E
:10040000614600901C46501AB44103D30098401C2A
:10041000009002E0921800985B41002803DA002067
:10042000014605B0F0BD00200121090507468646BA
:1004300011E064461D46141BB54106D36546521BA8
:10044000B341744607430C43A646CD07400849080C
:10045000284392185B4105460D43EAD110461843E4
:1004600013D06046194650407140084306D060469C
:10047000101AB34106D20122002306E00022012314
:10048000DB0702E00122D2435310009874460105B5
:10049000381C6141029C039D0019694100F09AF8E3
:1004A000BFE70000FD0300000EB5C217C10F5040AA
:1004B000CA0740180021054B0293019200910A4699
:1004C0000B4600F094F803B000BD000033040000B8
:1004D0004A0009030123090B1B051943094B10B5F9
:1004E000520D9A4201DA002010BD064B34339A4275
:1004F00003DC9A1A00F04AF810BD034951188840ED
:1005000010BD0000FF030000CDFBFFFFF0B51FB4DE
:100510000646002082B005464024019100901BE071
:10052000019922460F46304600F030F8049A059BA8
:10053000801A994110D310461946224600F016F849
:10054000361A8F410197224601200021009F00F0BA
:100550000DF838184D4100902046641E0028DFDC5D
:10056000019B00982946324607B0F0BD10B5202AFD
:1005700004DB0146203A9140002010BD9140202329
:100580009C1A0346E3401943904010BD10B5202A41
:1005900004DB0846203AD040002110BD0B46D34072
:1005A000D0402024A21A91400843194610BD10B52E
:1005B000202A06DBCB170846203A1041C1170B430F
:1005C00006E00B461341D0402024A21A9140084374
:1005D000194610BD10B5002B08DA0024401C6141FB
:1005E00092185B411A4301D14008400010BDF0B59C
:1005F0001FB482B005460C0003D0084601F04EF847
:1006000002E001F04BF820300246009021462846D7
:10061000FFF7ACFF049B059A04460F4618431143AD
:10062000084314D0184610431BD0009840210A1AE2
:1006300018460599FFF7AAFF05460E46009A059948
:100640000498FFF793FF084305D0012004E02046FB
:10065000394607B0F0BD0020C11705430E432C43B7
:10066000374300990E986305401A7905E40A002281
:100670000C43FD0A0A3002D500200146E9E70105D6
:10068000101969410C9C0D9D00196941FFF7A2FFEB
:10069000DFE700004A0009030123090B1B0519438A
:1006A0000A4B10B5520D9A4202DA0020014610BDE5
:1006B000064B34339A4203DC9A1AFFF767FF10BDEA
:1006C000034BD218FFF752FF10BD0000FF030000DC
:1006D000CDFBFFFF10B5002904DB0124E4074042F5
:1006E0008C412146002B04DB1C460123DB075242D0
:1006F000A341994200D1904210BD0000064C012553
:10070000064E05E0E36807CC2B430C3C98471034B9
:10071000B442F7D3FFF7D4FCBC4C0008DC4C000813
:1007200070B58C180578401C6B075B0F01D10378FE
:10073000401C2A1106D10278401C03E006780E7096
:10074000401C491C5B1EF9D12B0705D40023521E07
:100750000DD40B70491CFAE70378401CCB1A921C8D
:1007600003E01D780D70491C5B1C521EF9D5A14297
:10077000D8D3002070BD000010B504460121C90285
:10078000014803F081F810BD00040048F0B5A7B09F
:100790000020269004202590002700260024002019
:1007A000249000250390401E02900020019080219B
:1007B00004A8FFF7DCFC25AA102126A802F0E2F825
:1007C0002AA0269900F05AFF012189022698884222
:1007D00003D389012698884207D930A000F04EFF44
:1007E00038A000F04BFF27B0F0BD2698C00901905B
:1007F0000198401C0190002733E080202590249828
:1008000081B225AA04A802F0BDF8002623E004A8BE
:100810008119042203A8FFF791FC002417E0FF20B0
:10082000093060433149085C00280FD1E0B2FFF77E
:10083000A3FF290B0298814202D0284600F09CFEBB
:100840002A4603210120039B00F0D6F8641C002CEB
:10085000E5D02D1D361D802ED9D3249880302490CC
:100860007F1C01988742C8D300BFBCE762656769F7
:100870006E20646F776E6C6F61642028204865611C
:1008800070204D656D6F7279787878783A2030787D
:100890002530385820290D0A000000004552522109
:1008A000204543523836363020636F646520646FCC
:1008B000776E6C6F61642074696D65206F75740D5F
:1008C0000A0000002A2A2A2A2A2A4552524F522177
:1008D0002020204552524F522120204552524F5243
:1008E000212A2A2A2A2A2A0D0A000000C8030020E9
:1008F00010B504460249204600F065FA10BD00001C
:1009000010010020F8B507460C4615461E4638462D
:10091000FFF732FF012C02D0284600F02DFE002CFC
:1009200001D0062000E00320014600232A46184695
:1009300000F062F83060F8BD70B505460C46002145
:1009400000202B4E30607060032C24D0062C4DD13B
:100950002946C90730460068CE0FF6073043244EBB
:1009600030602146090730460068072636070E40EA
:1009700030431F4E306011460904304600681D4E5A
:100980000E4030431A4E306099B23046006808433A
:100990003060012070BD2946C90715480068CE0F98
:1009A000F6073043124E3060214609073046006892
:1009B000072636070E4030430D4E306011460904BD
:1009C000304600680B4E0E403043094E3060190C23
:1009D00030460068084330601904304640680E0C09
:1009E00036043043024E70600220D3E70020D1E786
:1009F0008C0300200000FF0FFEB505460C4616468E
:100A00001F46002000900190009840094001002DF1
:100A100005D1062C01D10F2102E01F2100E00021A9
:100A2000C906C90E084300903F2149010098884338
:100A3000062C01D11F2100E02F2149013F22520144
:100A4000114008430090B2B23B4621462846FFF7CA
:100A500073FF0548006801900348406802906846AB
:100A600000F0EEF8FEBD00008C030020F8B506464D
:100A70000C4615461F463046FFF77EFE012C02D07D
:100A8000284600F079FD002C01D0062000E003206C
:100A900001463B462A460120FFF7AEFFF8BD0000A5
:100AA00010B5012002F0DEFB002807D004480078D2
:100AB000401C03490870012002F0CEFB10BD00006D
:100AC0000600002010B504460121C902014802F0C9
:100AD000D9FE10BD0004004810B5044610E0BC2249
:100AE0000021084603F0AAFD0021084603F026FD78
:100AF0000649087008460278002105A000F0BEFDF6
:100B000002480078BC28EAD110BD00000300002094
:100B100041442564206670676120737461746520A8
:100B20003A2025640D0A000000BFFEE77047000070
:100B300010B5002819DA1A4A03071B0F083B9B0857
:100B40009B00D2588307DC0EFF23A3409A438B07F8
:100B50001B0E8407E40EA3401A43114B0407240F15
:100B6000083CA408A4001A5118E00E4A03231B02F3
:100B7000D21883089B00D2588307DC0EFF23A340C2
:100B80009A438B071B0E8407E40EA3401A43054BC0
:100B9000032424021B198408A4001A5110BD00006C
:100BA0001CED00E000E100E070470000F8B50646EB
:100BB0000D461746002400200090FF2009307043A6
:100BC0001749085C002829D100BF1DE0304600F01D
:100BD00003FC002801D101200090E0004019436887
:100BE000E0002A5800213046FFF740FF0A2002F0BB
:100BF000ADFAE00028580B49884203D17D20C0009F
:100C000002F0A4FA601CC4B2BC42DFDB7D20C0004D
:100C100002F09CFA314604A000F030FD0098F8BDC7
:100C2000C803002080112000414443256420696EE0
:100C3000697420636F6D706C6174650D0A0000004B
:100C400070B505460026002410210920C00602F0D8
:100C500019FE00BF00BF00BF00BF28884005800EFE
:100C60001F2834D100242FE020210920C00602F0E3
:100C70000BFE0121C907E14068680840002805D043
:100C800080210920C00602F0FFFD04E08021092038
:100C9000C00602F0F7FD102C0BDB40210920C00636
:100CA00002F0B6FE002804D01F20011B012088405E
:100CB000064300BF00BF20210920C00602F0E2FD6C
:100CC00000BF00BF601CC4B2202CCDDB65E0002457
:100CD0002FE020210920C00602F0D6FD0121C9071E
:100CE000E14068680840002805D080210920C0063E
:100CF00002F0CAFD04E080210920C00602F0C2FD16
:100D0000102C0BDB40210920C00602F081FE0028D8
:100D100004D02F20011B01208840064300BF00BFE4
:100D200020210920C00602F0ADFD00BF00BF601CFD
:100D3000C4B2202CCDDB00242DE020210920C006E8
:100D400002F0A2FD0121C907E140A868084000287F
:100D500005D080210920C00602F096FD04E0802124
:100D60000920C00602F08EFD40210920C00602F0D5
:100D70004FFE002804D00F20011B012088400643AD
:100D800000BF00BF20210920C00602F07BFD00BF8C
:100D900000BF601CC4B2102CCFDB10210920C0069C
:100DA00002F072FD20210920C00602F06BFD8021B7
:100DB0000920C00602F066FD00BF00BF00BF00BFF3
:100DC000304670BD7047F3B583B00C46002500BFB8
:100DD0002EE028010019C0680090280100190821A0
:100DE000411802900A7813464A78120213438A780F
:100DF00012041343C97809060B4307793A46477929
:100E00003F023A4387793F043A43C17909060A43CE
:100E10000778394647783F02394387783F0439439A
:100E2000C07800060143039800F0CEFB06466D1C17
:100E3000280100194078FF28CBD1304605B0F0BD1D
:100E400011201D4908601D4840681C49486008463B
:100E500040684860084640687B21C90388431749B9
:100E60004860084640680521C904084313494860A2
:100E7000084600680121090608431049086000BFC0
:100E80000E4800680121490608400028F8D00B48A8
:100E9000406880088000094948600846406802218F
:100EA00008430649486000BF044840680C210840D8
:100EB0000828F9D1704700000020024000100240CD
:100EC0007FB504460D4614211348FFF750F943201F
:100ED0001149087053204870412088704420C87020
:100EE00014200871002048718D71CC71042202A970
:100EF00009480830FFF722F9042203A906480C30FC
:100F0000FFF71CF9FE2004490874FC204874FE20F9
:100F10008874FC20C8747FBD64030020F0B587B0DE
:100F2000002700260020069000210C460D461821BF
:100F30008D48FFF71CF918218C48FFF718F900229B
:100F40001621104603F07AFB00220621104603F01A
:100F500075FB00208649087086A000F08FFB8E4844
:100F600000688E49096888420CD88B4800688C4913
:100F70000968884206D38848006801F0D7FB894A8F
:100F8000D160906087498A68C9681046FFF7A0FA67
:100F9000059002F00DFC002800D0012782A000F08F
:100FA0006DFB01220421002003F048FB00220421F4
:100FB000104603F043FB00BF01218902814802F083
:100FC00027FD0028F8D0684603F02CF8182269465F
:100FD0006648FFF7B3F86548C5608460006900287B
:100FE00027D0182261496048FFF7A8F85E480278C8
:100FF0001321002003F022FB7D20C00002F0A6F8A0
:1010000001220621002003F019FB6FA000F036FB3F
:1010100055480078544909690091019061498868F0
:10102000C96802460B46059104906DA000F026FBAE
:1010300097E075A000F022FB594806684FE0304663
:1010400001F074FB04460D460022774B20462946EA
:10105000FFF7B2F904460D4620462946FFF738FA55
:10106000059002F0A5FB002800D0012701220421F1
:10107000002003F0E3FA00220421104603F0DEFA18
:1010800000BF012189024F4802F0C2FC0028F8D0BD
:10109000684602F0C7FF182269463448FFF74EF849
:1010A0003248C56084603048006930490969884227
:1010B00014D218222D492C48FFF740F82A4800780E
:1010C00029490969009101902748C1688068024652
:1010D0000B460591049055A000F0D0FA761C2F48DD
:1010E00000688642ABD920480069002801D1022758
:1010F00037E01D488268C1681046FFF7E9F905909E
:1011000002F056FB002800D0012753A000F0B6FAE9
:1011100001220421002003F091FA0022042110464C
:1011200003F08CFA104802781321002003F086FAAD
:101130007D20000102F00AF801220621002003F0C0
:101140007DFA09480078084909690091019006492B
:101150008868C96802460B460591049033A000F0E8
:101160008DFA384607B0F0BD98030020B003002088
:1011700038020020322E36203547206465666175BE
:101180006C74207377656570206672657120737466
:101190006172740D0A000000300000201C00002065
:1011A0001800002040020020322E362035472064EF
:1011B000656661756C74205258206973206C6F638A
:1011C0006B0D0A000004004866697273742073791D
:1011D0006E6320697320737563636573730D0A0012
:1011E00066726571203A202566206B687A2C207023
:1011F00065616B203A2025642C206E696432203AA8
:101200002025640D0A000000322E36203547206C60
:101210006F6F7020737765657020667265712073DB
:10122000746172740D0A000000408F40667265712F
:10123000203A2025302E3466206B687A2C20706589
:10124000616B203A2025642C206E696432203A209C
:1012500025640D0A00000000322E36203547206C30
:101260006F6F70205258206973206C6F636B0D0A8A
:101270000000000010B503F033FB10BD10B51B4893
:101280000068012108431949086008464068184968
:101290000840164948600846006816490840134946
:1012A0000860084600680121890488430F490860E6
:1012B000084640683F21090488430C4948600846B5
:1012C000C06A00090001C8620846006BFF21543162
:1012D0008843064908630846406B4008400048635D
:1012E00000208860FFF7ACFD10BD00000010024038
:1012F0000CB8FF08FFFFF6FE10B50121154803F0FA
:101300005CFA002825D00121124803F053FA124854
:101310000078401C1049087010480078002807D059
:1013200000200E49087010210D4802F0ADFA06E0C9
:1013300001200A4908701021094802F0A3FA064862
:1013400000780A2805DD00200349087001200549BE
:10135000087010BD00040040360000203700002057
:10136000000400480400002010B50121154803F0D6
:1013700024FA002825D00121124803F01BFA124854
:101380000078401C1049087010480078002807D0E9
:1013900000200E49087010210D4802F075FA06E091
:1013A00001200A4908701021094802F06BFA06482A
:1013B00000780A2805DD002003490870012005494E
:1013C000087010BD000400403400002035000020EB
:1013D000000400480400002070B5044600250020E9
:1013E00025490860002C02D0012C42D120E005E004
:1013F00021480068401C2049086000BF01211F48A7
:1014000002F006FB002804D01B4800681C498842F3
:10141000EED3194800681A49884204D200201649C0
:101420000860012503E0002013490860002520E042
:1014300005E011480068401C0F49086000BF022108
:101440000E4802F0E5FA002804D00B4800680C4969
:101450008842EED3084800680949884204D2002037
:1014600005490860012503E00020034908600025C4
:1014700000BF00BF284670BD1000002000040048D7
:1014800020A1070010B52B492B4803F0F0FB0128E1
:101490004FD1294803F0B6FAC1B228480278007843
:1014A000401C264B187026488154184600780428A2
:1014B0001CD12348007843280BD121484078532879
:1014C00007D11F488078412803D11D48C07844289F
:1014D0000CD01B4840781A4908700846807848703C
:1014E0000846C078887003201449087013480078B3
:1014F000502818D011480078001F1149085CFE28B8
:1015000017D10E480078C01E085CFC2811D10B488A
:101510000078801E085CFE280BD108480078401E29
:10152000085CFC2805D10120064908700020034909
:10153000087010BD050105000038014000000020C2
:10154000140300200100002070B504460D4600265B
:101550000CE03046761C215C064803F058FA00BFC8
:101560004021044803F0DCFA0028F9D0AE42F0D361
:1015700070BD00000038014070B50446200B00F03B
:1015800009F805462B46FF22120106210120FFF72C
:1015900033FA70BD0246002101E0481C81B2C80048
:1015A000074B1858074B984204D0C800044B1858F2
:1015B0009042F2D1C800024BC01800797047000079
:1015C00038000020FFFF0F000FB410B50446684636
:1015D000007B02280BD117A0059900F04FF8059861
:1015E00001F0B4FD002010BC08BC04B018476846E8
:1015F000007B01280ED16846417B2046059B049A5A
:10160000FFF734FA6846417B0EA0059B049A00F070
:1016100035F80DE06846417B05AB2046049AFFF79C
:1016200071F96846417B0EA0059B049A00F026F8EC
:101630002846D8E744656C61795F7573282564296D
:101640000D0A0000777269746520256420307825C2
:10165000303858203078253038580D0A0000000006
:101660007265616420202564203078253038582048
:101670003078253038580D0A000000000FB410B53E
:1016800003A9044B044A029800F0DAF810BC08BC25
:1016900004B018478D370008100300202021020CE9
:1016A00001D010211046020A01D010460839020963
:1016B00001D01046091F820801D01046891E420839
:1016C00001D0881E7047081A704702E008C8121F30
:1016D00008C1002AFAD170477047002001E001C11B
:1016E000121F002AFBD17047F0B51FB484B00798D1
:1016F0000699020D014314D04A484B49101848433B
:1017000005140F9801280E981CD0281A401C00249C
:10171000464E4749009401910290002814DA47424E
:1017200027E00F98012443A3012808D00021049842
:101730000F9A84600360C260416009B0F0BD0E98EA
:10174000C143F4E74042E2E7074612E0F80707D05A
:101750002246334601990098FEF7C6FD019100909C
:101760002246334610461946FEF7BEFD04460E4695
:101770007F10002FEAD10298019B0028009A079958
:10178000069802DAFEF7B0FD01E0FEF715FE04460A
:101790000E460022284BFEF79DFF03D80020C043D1
:1017A000014607E00022254B20463146FEF7EAFCC1
:1017B000FEF770FF102409E0002C0ADB0A22002348
:1017C000FEF7A4FE059B30321A55641E02460A43FA
:1017D000F2D11122641C059B121B1C190F9B012BBB
:1017E00003D0012308430ED10AE0084304D011209E
:1017F0000E9000200F9084E70E98151A6D1E0BE0D6
:101800000E98824202DD00236D1C03E0824201DA61
:1018100000236D1E002BEED004980F998260C160EA
:1018200030C08AE701FCFFFF104D0000000024409B
:101830000000F03F300000000000F0430000E03FF7
:10184000FFB597B00646002518E2252877D1002479
:101850002746FD49049400E00443761C32780120B9
:10186000203A90400842F7D130782A280ED0022240
:10187000307801463039092916D804990A2359438A
:10188000303940181443761C0490F1E7189802C8C8
:1018900004911890002904DA0120400304434842CF
:1018A000049002200443761C30782E2814D10420A2
:1018B00004437078761C2A2809D11898761C80C8B1
:1018C000189009E00A214F43303FC719761C307841
:1018D000014630390929F5D930786C2810D006DC5A
:1018E0004C281AD068280ED06A2817D104E0742832
:1018F00013D07A2812D110E00120400504430CE0F7
:101900000121090501E0032109050C437178814299
:1019100003D1012000052418761C761C3078119024
:1019200066280BD013DC58287DD009DC00287BD03A
:101930004528F6D04628F4D047281AD1A5E118E06A
:10194000632835D0642870D0652812D19DE17028B5
:101950006CD008DC6728F1D069287BD06E280DD0C8
:101960006F2806D1BAE073282ED0752871D0782858
:1019700059D01A9A199990476D1C7EE16002400F68
:10198000022809D003280DD00428189801680DD02A
:101990000D60001D189070E11898EA1701680D603D
:1019A0004A60F6E7189801680D80F2E70D70F0E7DD
:1019B00018986A4601781172001D18900020507224
:1019C00002A80090012005E0189802C81890002095
:1019D0000091C04361070DD5002101E00199491C28
:1019E0000191B94212DA8142F8DB009A515C002978
:1019F000F4D10BE0002101E00199491C01918142E1
:101A0000FADB019A0099895C0029F5D101990498C3
:101A10001A9B471A21463846199A00F097FA0199FD
:101A2000401945180BE04FE02CE113E04EE0009820
:101A300000990078491C00911A9A199990470198C9
:101A4000401E0190401CF2D1214638461A9B199A3B
:101A500010E137E00A200021009001916002410F5F
:101A6000022907D0189A01CA1892C217944603296E
:101A700008D00AE01898C01DC108C90005C918910E
:101A8000944607E000B2C2179446042902D140B23E
:101A9000C1178C4600226146944506DA0A460021A9
:101AA000404291418C462D2102E0210504D52B2195
:101AB0006A461173012103E0E10701D02021F7E715
:101AC000029155E00A200AE0102008E01020009062
:101AD0000021042004430191082703E0082000218D
:101AE000019100906002410F022907D0189A01CAA3
:101AF000189200229446032908D008E01898C01DC7
:101B0000C108C90005C91891944603E080B20429B0
:101B100000D1C0B200210291210729D51199702965
:101B200006D0009A1021019B4A401A4305D00EE0CE
:101B300040216A461173012108E06146014306D045
:101B400030216A4611731199517302210291009A52
:101B50000821019B4A401A430AD16146014301D141
:101B6000610705D530216A46117301217F1E02915C
:101B70001199582904D035A10E910DA90D910DE0B0
:101B800037A1F9E76146019B009AFEF7BFFC0E9B67
:101B90008C469B5C0D9A521E0D9213706146014358
:101BA000F0D10D9805A9081A20300190600703D5DF
:101BB00001200004844300E001270198874201DDF1
:101BC000381A00E000200199009041180298091885
:101BD0000498401A0490E00306D421461A9B199AEF
:101BE000049800F0B3F94519002706E003A81A9AF3
:101BF000C05D199990476D1C7F1C02988742F5DBE8
:101C0000E0030CD521461A9B199A049800F09EF91E
:101C1000451904E01A9A3020199990476D1C0099D3
:101C2000481E00900029F5DC08E00D980D99007819
:101C3000491C0D911A9A199990476D1C0199481EDB
:101C400001900029F1DC63E10928010030313233D1
:101C500034353637383961626364656600000000E8
:101C600030313233343536373839414243444546D2
:101C70000000000000F05AF94519761C3078002861
:101C800000D0E2E528461BB0F0BD600700D406276F
:101C90001898C01DC108C90048680A680831C30FF8
:101CA000DB071891190001D09CA108E0210501D59E
:101CB0009BA104E0E10701D09AA100E09AA14300B2
:101CC00011985B08109165280CD006DC452809D0D6
:101CD00046281DD0472841D141E0662818D0672802
:101CE0003CD13CE00021112F01DB112000E0781CE9
:101CF0000191009008A911A8FFF7F6FC139905912E
:101D00000021119A15927F1C12980197009150E0C2
:101D10000120C00703900120019008A9009711A895
:101D2000FFF7E2FC139A149905920022119B00928E
:101D300012981593059A0192002901D0104602E0ED
:101D4000791C40180190381A01D5019804E04042EE
:101D5000401E0090781C0190C01B029043E0012FB0
:101D600000DA01270021112F01DD112000E03846A3
:101D70000191009008A911A8FFF7B6FC13990591ED
:101D8000119A0021129815920091019721070CD405
:101D90000599B94201DB019900E00191012904DDB7
:101DA000159A491E515C302906D0B84201DA011D4E
:101DB00005DA0121029115E00199491EEDE700289D
:101DC00005DC0099411800910199091A03E0019A74
:101DD000411C914200DD01910099401A401C029083
:101DE0000120C0070390200706D402990198814280
:101DF00002DB0020C043029000206946C87707AF8D
:101E0000012103980337C907884224D0022011908A
:101E10002B201290039800280CDA404203902D20CA
:101E2000129007E00A210398FEF75EF930317F1E19
:101E3000039039701199481E11900029F2DC039823
:101E40000028EFD1791E12980870307820210840C0
:101E50004530BF1E387006A8C01BC01D03901098E7
:101E60000078002800D00120019941180298C0177D
:101E70000918039809180498401A401E0490E003BA
:101E800006D421461A9B199A049800F05FF8451968
:101E900010980078002803D01A9A199990476D1C61
:101EA000E00324D521461A9B199A049800F04EF8B5
:101EB00045191CE00098002807DB00990598884226
:101EC00003DD1598405C199901E0199930201A9AA0
:101ED000904700986D1C401C00900298401E029094
:101EE000002804D11A9A2E20199990476D1C019947
:101EF000481E01900029DDDC05E038781A9A7F1C25
:101F0000199990476D1C0399481E03900029F4DC31
:101F100021461A9B199A0498ACE600002D00000097
:101F20002B0000002000000000000000F8B504466F
:101F300000251E461746880404D405E039462020B3
:101F4000B0476D1C641EF9D52846F8BDFFB50446A0
:101F5000002581B01E46C80301D5302700E02027A8
:101F6000880404D505E038460399B0476D1C641E0B
:101F7000F9D5284605B0F0BD00B589B00121880427
:101F800002F09CF80121480502F0A8F80122062180
:101F9000144801F047FD01220721124801F042FDDB
:101FA000C020009002216846017100214171012189
:101FB0008171C17169460B4801F0E2FC0020059077
:101FC000039006900490079008900748029002A999
:101FD000064801F06BFD0121044801F04BFD09B0FA
:101FE00000BD0000000400485D3E30000054004089
:101FF000F8B50446002600250027FB48C079402894
:102000007ED008DC01280DD002283AD0032878D0F1
:10201000042835D1D6E0502874D0512873D0E02858
:10202000F7D108E3FF2109316143F04A89180846D6
:102030001430F021FEF79BF80022ED49ED4802F044
:10204000F5FD01F05BFB342001F0F0FAFF210931CE
:102050006143E64A8918C86801F00CFB01F0ECFA0C
:102060000122E349E34802F0E1FD0021FF200930AD
:102070006043DE4A801841602146DFA0FFF7FEFA88
:10208000E2E20022DA49DB4802F0D0FD01F036FB43
:10209000342001F0CBFAFF2009306043D3494018C7
:1020A0004068002857D0FF2009306043401840683E
:1020B0001E2850D8FF20093060434018006900688E
:1020C000D4490860084621460268D3A0FFF7D6FA33
:1020D000002537E0FF2009306043C44BC01814309E
:1020E000EB00C01840680090FF2009306043BF4BF0
:1020F000C0181430EB00C258BB488179312003E08E
:1021000073E234E07DE289E2009BFEF7D9FE142100
:10211000C948FFF719FAFF2009306043B349401856
:102120001430E90040184368FF2009306043AF498C
:1021300040181430E90042582146C0A0FFF79EFA2B
:10214000681CC5B2FF2009306043A84940184068A8
:10215000A842BFD803E02146C2A0FFF78FFA01F0E2
:102160006BFA0122A249A34802F060FD6CE220460E
:10217000FFF732F9002806D101260021FF2009309F
:1021800060439A4A11549848BE4B00218268204609
:10219000FEF7B8FB944882688179BA48036830201A
:1021A000FEF78EFE1421A448FFF7CEF98E48826810
:1021B000B44821460368B4A0FFF760FA642000F039
:1021C000C5FF41E2002723E0FF2009306043874933
:1021D00040181430F900405883498968884212D168
:1021E0002146B0A0FFF74AFA7F48C168FF200930B6
:1021F00060437E4A80181430FA0080184160012044
:10220000AF4908700CE00020AD490870781CC7B2D7
:10221000FF2009306043754940184068B842D3D860
:1022200000BFA7480078002853D16F488168FF207D
:10223000093060436D4A80181430FF22093262432E
:102240006A4BD2185268D20081506748C168FF209B
:10225000093060431A4680181430FF220932624365
:10226000D2185268D20080184160FF2009306043C4
:10227000194640181430FF2109316143C9184968D3
:10228000C90040184268FF200930604319464018D1
:102290001430FF2109316143C9184968C900405809
:1022A0000146009087A0FFF7E9F9FF20093060435D
:1022B0004E49401840681E280BD2FF200930604369
:1022C00040184068401CFF2109316143474A891882
:1022D0004860FF2009306043444940182146426865
:1022E00083A0FFF7CBF9002574E02046FFF774F8D0
:1022F000002800D10126FF20093060433B494018E7
:102300001430E90040184368FF2009306043374922
:1023100040181430E900425800212046FEF7A6FB81
:10232000FF2009306043314940181430E90040581B
:102330007549884215D12046FFF74EF8002806D18E
:1023400001260021FF2009306043284A1154082348
:102350006E4A00212046FEF789FB7D20C00000F078
:10236000F5FEFF2009306043204940181430E90091
:10237000405865491031884215D12046FFF72CF8A6
:10238000002806D101260021FF2009306043174AAA
:1023900011545F4B5D4A00212046FEF767FB7D200C
:1023A000C00000F0D3FEFF20093060430F49401801
:1023B0001430E90040184368FF20093060430B499E
:1023C00040181430E900425821461CA0FFF756F986
:1023D000681CC5B2FF2009306043044940184068BA
:1023E000A84282D8214695E078030020C803002047
:1023F00005010500004400404144256420636C65EC
:10240000617220666C61736820636F6D706C6174BB
:10241000650D0A000C0000204144256420726567A8
:102420006973746572206E756D62657220697320C0
:1024300025640D0A00000000640300204144256467
:10244000207772697465207265676973746572209C
:102450003A202538782076616C75653A20253878E1
:102460000D0A00004144256420666C617368206891
:10247000617665206E6F2072656769737465720D91
:102480000A000000D80200204144256420616464F1
:10249000723A2538782C76616C75653A2538780D56
:1024A0000A00000041442564207265676973746501
:1024B000722069732065786973740D0A000000004A
:1024C0000200002041443120777269746520616404
:1024D0006472203A20253878202C20777269746540
:1024E0002076616C7565203A202538780D0A000049
:1024F0004144256420726567206E756D62657220A7
:102500003A2025640D0A00000840002080112000B8
:10251000080000204EA0FFF7B1F8002255495648A8
:1025200002F084FB01F0EAF8342001F07FF8FF218B
:1025300009316143514A8918C86801F09BF8FF21AD
:10254000093161434D4A8918C8684D4901F0E8F8DE
:10255000FF2209326243494BD2185168FF220932E7
:102560006243D218106901F0DBF8002529E0FF2250
:1025700009326243414BD2181432EB00D158FF228A
:10258000093262433D4BD218D2686B1CDB00D01875
:1025900001F0C6F8FF2209326243384BD2181432D8
:1025A000EB00D2185168FF2209326243334BD21834
:1025B000D2686B1CDB00D218101D01F0B1F8681C4A
:1025C000C5B2FF20093060432C4940184068A8423A
:1025D000CDD801F031F801222649274802F026FB28
:1025E000214628A0FFF74AF82EE03048806830499D
:1025F00008602E48C0682F4908602FA0FFF73EF8FA
:1026000022E034484179204601F098FF009031489B
:10261000417931A0009AFFF731F815E02D48827911
:102620004179204602F00AF82A488279417934A09B
:10263000FFF724F808E01D48008981B204221B48F6
:102640000C3000F069FB00BF00BFF0B2F8BD000025
:102650004144256420646174612070726F67726107
:102660006D6D65722073706920636F6D706C61743D
:10267000650D0A000501050000380140C80300206F
:1026800040302010414425642064617461207072E0
:102690006F6772616D6D657220666C61736820632F
:1026A0006F6D706C6174650D0A0000007803002086
:1026B000180000201C0000207363616E20667265A4
:1026C0007120636F6E66696720636F6D706C6174F3
:1026D000650D0A0014030020667067612072656151
:1026E0006420726567203A2025642C66706761203B
:1026F000726561642076616C7565203A20256400FE
:102700006670676120777269746520726567203A28
:102710002025642C66706761207772697465207665
:10272000616C7565203A202564000000F0B587B023
:1027300004463A4884423FDA0020059011E00598AB
:102740004000471CF91ECA0F049151184910601A25
:102750000321FDF7DFFC002900D105E00598401CAE
:10276000059005980328EADB00BFF91ECA0F059102
:1027700051184910601A0321FDF7CCFC0690384629
:10278000FDF792FE0022264B01910090FDF7ACFD73
:10279000059104900698FDF787FE0022214B0191D8
:1027A0000090FDF7A1FD03910290059B049AFDF7AF
:1027B000E9FC05460E462DE01B48844215DA174811
:1027C000201A06900698FDF76FFE0022174B039122
:1027D0000290FDF789FD03229207154B05910490A5
:1027E000FDF7D0FC05460E4614E00F48201A06906F
:1027F0000698FDF759FE00220E4B03910290FDF75B
:1028000073FD1B2292060C4B05910490FDF7BAFC58
:1028100005460E462846314607B0F0BD4B1D000068
:10282000006AE840804F3241F056000000F935411F
:102830000B5AE641C07A7041AB95164270B5054619
:102840000026002400BF1DE0FF20093060434049FE
:10285000085C002814D16000401CC1B2012220464F
:1028600001F0ECFE6000401CC1B20022204601F0E5
:10287000E5FE6000401CC1B20122204601F0DEFEF0
:10288000601CC4B2AC42DFDB7D20C00000F05EFC07
:1028900000240BE0FF20093060432D49085C00282C
:1028A00002D12046FEF724F8601CC4B2AC42F1DB32
:1028B0007D20C00000F04AFCFDF768FF002414E012
:1028C000FF20093060432249085C00280BD1002317
:1028D000204A01212046FEF7C9F801231D4A194666
:1028E0002046FEF7C3F8601CC4B2AC42E8DB7D2092
:1028F000000100F02BFC00241EE0FF2009306043A3
:102900001349085C002815D1134908600B460122C1
:10291000520700212046FDF7F5FF0F4821460268C7
:102920000EA0FEF7ABFE0C480068FF212431884260
:1029300000D00126601CC4B2AC42DEDB0722104985
:102940000020FEF733F9002800D00126304670BD84
:10295000C8030020FC070000D802002020414425C5
:10296000642064617461203078323030303030302F
:10297000303A20253878203D3D646174610D0A00AD
:1029800060020020F7B584B00746154600260020F7
:102990000390002402902888FF21FDF7BBFB0390E1
:1029A0002888FF21FDF7B6FB0E46012040030023D7
:1029B00002220090B1480188B14801F0BBF805201F
:1029C0004003B04908600CE0AE490868411EAD4ABA
:1029D0001160002805D1ACA0FEF750FE012007B021
:1029E000F0BD0221A64801F053F80028ECD0FF22E8
:1029F0001202059810400112A14801F039F8052093
:102A00004003A04908600BE09E490868411E9D4AAA
:102A10001160002804D1A4A0FEF730FE0120DEE7FB
:102A20000221974801F034F80028EDD00598C1B292
:102A3000934801F01DF805204003924908600BE01F
:102A400090490868411E8F4A1160002804D19EA059
:102A5000FEF714FE0120C2E74021894801F018F872
:102A60000028EDD0039800287ED00120029074E069
:102A70000298002813D1052040038249086008E02D
:102A800080490868411E7F4A1160002801D1012059
:102A9000A5E780217A4800F0FBFF0028F0D00398DA
:102AA00001281BD1002E19D1029800280BD0092033
:102AB000800201235B06FF22009070480188704865
:102AC00001F038F823E0002001235B06FF2200908C
:102AD0006A4801886A4801F02DF818E00298002839
:102AE0000BD00920800201231B06FF2200906348BF
:102AF0000188634801F01EF809E0002001231B064D
:102B0000FF2200905D4801885D4801F013F8002025
:102B1000029000241BE0052040035A49086008E0A9
:102B200058490868411E574A1160002801D1012008
:102B300055E70421524800F0ABFF0028F0D0504880
:102B400000F092FF3855641C2888401E2880FF2C16
:102B5000E1D13F190398401E03900398002887D1C4
:102B6000002E6ED0052000E03DE04003454908609E
:102B700008E044490868411E424A1160002801D11A
:102B800001202CE780213E4800F082FF0028F0D091
:102B90000020F2B201235B060090384801883848D3
:102BA00000F0C8FF00241BE0052040033549086001
:102BB00008E034490868411E324A1160002801D1FA
:102BC00001200CE704212E4800F062FF0028F0D01D
:102BD0002B4800F049FF3855641C2888401E288087
:102BE000B442E1D12DE009208002F2B201235B065C
:102BF000009022480188224800F09CFF00241EE03B
:102C0000052040031F4908600BE01E490868411E6B
:102C10001C4A1160002804D133A0FEF72FFD0120CB
:102C2000DDE60421164800F033FF0028EDD01448FB
:102C300000F01AFF3855641C2888401E2880B442D2
:102C4000DED1052040030F4908600BE00D490868FC
:102C5000411E0C4A1160002804D129A0FEF70EFD88
:102C60000120BCE62021064800F012FF0028EDD02C
:102C70002021034800F00AFF0020B0E6E002002017
:102C800000540040E40200203473656E64206861E3
:102C90007264776172652061646472206661696C38
:102CA0006564210D0A0000003573656E642068615B
:102CB0007264776172652061646472206661696C18
:102CC0006564210D0A0000003673656E642068613A
:102CD0007264776172652061646472206661696CF8
:102CE0006564210D0A000000776169742072786EB6
:102CF0006520666C6167206661696C65640D0A0019
:102D0000776169742073746F7020666C61672066E8
:102D100061696C65640D0A00F7B582B00E46144611
:102D2000002001900027002500903046F117490E41
:102D30000918C911C901711A89B20091802100983E
:102D4000081A85B22046E117490E09184902090CF4
:102D50000191E117490E0918C911C901611A8FB211
:102D6000009800282FD10198002809D14C480780ED
:102D700002463146029800F0D3F800F095F88CE056
:102D80000FE08020464908800A463146029800F04C
:102D9000C7F800F089F83046803086B2029880305B
:102DA00002900198411E89B201910028E9D1002FBB
:102DB00073D03B48078002463146029800F0B0F8D5
:102DC00000F072F869E00198002821D1AC4215DDCD
:102DD0003348058002463146029800F0A1F800F021
:102DE00063F8601B2E490880721991B2029A50193B
:102DF0002B4A00F095F800F057F84EE0284807807D
:102E000002463146029800F08BF800F04DF844E09D
:102E1000601B84B22046E117490E0918C9110191BF
:102E2000E117490E0918C911C901611A8FB2002DA5
:102E30000DD01B48058002463146029800F070F81C
:102E400000F032F8701986B202984019029013E02F
:102E50008020134908800A463146029800F060F845
:102E6000052040030F49086000F01EF8304680300E
:102E700086B20298803002900198411E89B2019179
:102E80000028E5D1002F08D00548078002463146CA
:102E9000029800F045F800F007F805B0F0BD00001A
:102EA000E8020020E40200201CB50020019001236C
:102EB0005B060246009017480188174800F03AFE6A
:102EC00000BF01200003154908603021124800F0BE
:102ED000DDFD0121104800F01FFE00BF0F4908680A
:102EE000411E0E4A11600028F8D10198411C019141
:102EF000FF212D31884201D101201CBD102106483F
:102F000000F0C6FD0028DCD12021034800F0BEFD02
:102F10000020F2E7E002002000540040E40200201C
:102F2000F8B507460C461546002601204003C302AB
:102F3000022200904D4801884D4800F0FBFD05201D
:102F400040034C4908600BE04A490868411E494A61
:102F50001160002804D148A0FEF790FB0120F8BDC5
:102F60000221434800F094FD0028EDD0FF2000022C
:102F7000204001123E4800F07BFD052040033D4902
:102F800008600BE03B490868411E3A4A116000287E
:102F900004D141A0FEF772FB0120E0E70221344892
:102FA00000F076FD0028EDD0E1B2314800F060FD80
:102FB000052040032F4908600BE02E490868411E98
:102FC0002C4A1160002804D13BA0FEF757FB0120DA
:102FD000C5E78021264800F05BFD0028EDD00020E9
:102FE00000902A7801235B0620480188204800F0E1
:102FF000A1FD1BE0052040031E4908600BE01D49B0
:103000000868411E1B4A1160002804D132A0FEF757
:1030100035FB0120A3E70221154800F039FD002807
:10302000EDD0B95D124800F023FD761C2878B0423F
:10303000E0D1052040030F4908600BE00D49086806
:10304000411E0C4A1160002804D128A0FEF716FB8F
:10305000012084E72021064800F01AFD0028EDD069
:103060002021034800F012FD002078E7E002002054
:1030700000540040E40200203273656E64206861F1
:103080007264776172652061646472206661696C44
:103090006564210D0A0000003373656E6420686169
:1030A0007264776172652061646472206661696C24
:1030B0006564210D0A00000073656E6420746573F9
:1030C0007420777269746520616464722066616936
:1030D0006C6564210D0A000073656E642064617480
:1030E00061206661696C6564210D0A0073656E6418
:1030F0002073746F7020666C6167206661696C650F
:1031000064210D0A0000000010B57D21C9000C48A3
:103110000068FCF7E9FF0446601E0A49884200D9AE
:103120000CE0601E084948610321081FFDF700FDFF
:103130000020054988610720086100BF10BD00001C
:10314000EC020020FFFFFF0000E000E001B50449B1
:103150000098086000BF024800680028FBD108BD45
:10316000DC02002000B585B00121880400F0A6FF34
:103170000121084600F0D2FF01200390002168469B
:103180000174C17403A9114800F0FAFB0021012069
:1031900001F0D8FA0120019000216846017208214F
:1031A00041720121817201A800F012F80120019002
:1031B00001A800F00DF8052168460170002141705A
:1031C0000121817000F0F6FE05B000BD000400484A
:1031D000002120498279002A35D00A461268036806
:1031E0009A430B461A600A46526803689A430B4694
:1031F0005A60027951180A6803681A430A60154A2E
:10320000926803689A43134B9A601A46D26803681F
:103210009A43104BDA604279102A0CD11A46926810
:1032200003681A430B4B9A601A46D26803681A4324
:10323000084BDA600DE00749427951180A680368C3
:103240001A430A6005E0027951180A6803689A4334
:103250000A6070470004014001494861704700005E
:103260000004014001460020044A52690A40002A35
:1032700001D0012000E00020704700000004014060
:1032800010B50146002000BF13E002030A4BD3181B
:10329000FF2209324243094C1219D3600203064B44
:1032A0001B1DD318FF220932424312191361421C1D
:1032B000D0B28842E9DB10BD00800008C8030020BE
:1032C000F8B50446002600BFFF20093060439E4A3F
:1032D000115C9EA0FEF7D2F9FF20093060439A49A5
:1032E000085C00287ED100229D499E4801F09EFC8A
:1032F00000F004FA342000F099F9FF20093060430F
:1033000091494018C06800689749086008462146FE
:10331000026896A0FEF7B2F993480068994988427E
:103320007ED1FF2009306043874940180069016859
:10333000FF2009306043844A80184160FF20093033
:10334000604311464018406800280FD0FF20093024
:103350006043401840681E2808D8FF2009306043A9
:1033600040182146426888A0FEF788F9FF200930FE
:10337000604375494018406800287DD0FF2009301F
:103380006043401840681E2876D8FF230933634302
:103390000F46DB195B68DA00FF2309336343DB194F
:1033A0001B69191DFF2309336343DB1918461430C9
:1033B000FCF7C4FE00256FE02046FEF70DF800285C
:1033C00000D10126FF20093060435F4940181430C6
:1033D000E90040184368FF20093060435A4940180B
:1033E000143000E09EE0E900425800212046FDF73D
:1033F0003DFB0A20FFF7AAFEFF2009306043524937
:1034000040181430E90040586749884210D12046DE
:10341000FDF7E2FF002800D101260823634A00E0FF
:1034200043E000212046FDF721FB6420FFF78EFEDC
:10343000FF2009306043444940181430E9004058E7
:103440005949103188420ED12046FDF7C5FF0028AA
:1034500000D10126564B554A00212046FDF706FBB8
:103460006420FFF773FEFF2009306043364940189F
:103470001430E900401800E035E04368FF200930CF
:103480006043314940181430E9004258214649A0B0
:10349000FEF7F4F8681CC5B2FF20093060432A49E2
:1034A00040184068A84287D81DE021464BA0FEF78F
:1034B000E5F8FF2109316143234A8918C868314979
:1034C00000F02EF90021FF20093060431E4A8018C9
:1034D0004160FF2009306043114640182146426890
:1034E00029A0FEF7CBF8FF200930604316494018A9
:1034F00040681E2810D90021FF2009306043124A7D
:1035000080184160FF200930604311464018214671
:1035100042681DA0FEF7B2F800F08EF8214639A0EF
:10352000FEF7ACF801220E490E4801F07FFB0121A5
:10353000FF2009306043044A1154314638A0FEF799
:103540009DF83046F8BD0000C80300206C6F636B27
:10355000207374617465203A2025640D0A00000010
:1035600005010500003801400C000020414425649D
:1035700020737461727420206D61726B3A2025385B
:10358000780D0A00403020104144256420726567A0
:103590006973746572206E756D626572206973203F
:1035A00025640D0A00000000084000208011200062
:1035B00008000020414425642077726974652072F8
:1035C00065676973746572203A20253878207661C2
:1035D0006C75653A202538780D0A00004144256451
:1035E000207468697320697320666972737420742B
:1035F000696D6520777269746520666C6173680D0A
:103600000A0000004144256420666C6173682069EB
:103610006E697420636F6D706C6174650D0A0000D3
:10362000726574203A2025640D0A00000149C860C3
:1036300070470000002002400348006980210843D1
:1036400001490861704700000020024010B50346A0
:10365000042400F035F8044603E000F031F8044695
:103660005B1E012C01D1002BF7D1002B00D10524CA
:10367000204610BD30B5044604250B200004FFF79A
:10368000E5FF0546042D17D10C48006902210843C7
:103690000A49086108464461006940210843074916
:1036A00008610B200004FFF7D1FF054603480069BD
:1036B0000221884301490861284630BD00200240AC
:1036C00004200D49C968C907C90F002901D001208C
:1036D00010E00949C96810221140002901D00220D8
:1036E00008E00549C96804221140002901D00320DF
:1036F00000E00420704700000020024005480069F7
:1037000080210840002804D003480249486003484B
:10371000486070470020024023016745AB89EFCD28
:1037200078B506460C460425002000900B200004C6
:10373000FFF78CFF0546042D24D1134800690121B1
:1037400008431149086134800B200004FFF77EFF15
:103750000546042D10D1B01C0090200C0099088063
:103760000B200004FFF772FF054607480069400878
:1037700040000549086105E0034800694008400031
:1037800001490861284678BD0020024070B5044612
:103790000D46E1B2054801F03AF900BF4021034867
:1037A00001F0BEF90028F9D0204670BD0038014074
:1037B000F8B5054600260024002000900120FDF702
:1037C0000BFE002803D1012620A0FDF757FF2B4652
:1037D000224A00210120FDF749F90120FDF7FCFDF7
:1037E000002803D1012619A0FDF748FF08231C4A31
:1037F00000210120FDF73AF90A20FFF7A7FC01207C
:10380000FDF7EAFD002803D1012610A0FDF736FFE1
:103810000020009007E06B46124A00210120FDF7CE
:1038200071F8641C00BF0098012802D00E48844241
:10383000F1D30D48844201D2002404E000240BA0FF
:10384000FDF71CFF01263046F8BD00004144206909
:103850007320627573790D0A000000000840002093
:10386000801120006001200020A107004144312088
:103870005258206973206E6F74206C6F636B0D0A51
:103880000000000001857047816170471CB501216F
:10389000480400F013FC0121880400F00FFC012112
:1038A000C80400F00BFC0120400200900121684692
:1038B00001710321417100218171C17169462E4856
:1038C00000F05EF80120400300900121684601717C
:1038D0000321417100218171C1716946274800F0BF
:1038E0004FF80120800200900021684601710321F9
:1038F000417100218171C17169461F4800F040F893
:103900000120C0020090012168460171032141712C
:1039100000218171C1716946174800F031F8082013
:1039200000900021684601710321417100218171DD
:10393000C1716946104800F023F810200090012161
:10394000684601710321417100218171C17169468D
:10395000094800F015F8012149030848FFF794FFD2
:1039600010210548FFF790FF0A20FFF7EFFB102119
:103970000148FFF787FF1CBD00040048000800480D
:10398000F0B50A4600210023002400BF3DE00125D8
:103990008D402B4615681D402C469C4234D115792C
:1039A000012D02D01579022D16D185684F0003260E
:1039B000BE40B543856055794E00B54086683543B5
:1039C0008560858801268E40B543858085889679F7
:1039D0008E40B6B23543858005684F000326BE4051
:1039E000B543056015794E00B5400668354305605E
:1039F000C5684F000326BE40B543C560D5794E006B
:103A0000B540C6683543C560491C1029BFD3F0BD19
:103A100002460020138A0B40002B01D0012000E059
:103A200000207047F0B5002300244D07EE0E154628
:103A3000B5402B46CD10AE0005462035AD594E079A
:103A4000F70E0F26BE40B543CE10B600074620370E
:103A5000BD51CD10AE003D46AD591D432C46CD1095
:103A6000AD003E467451F0BD01464A6AD0B270477F
:103A700081627047002904D0026801231A43026062
:103A800003E002685208520002607047C16170474B
:103A900010B502460023002093691C460C402346C3
:103AA000002B01D0012000E0002010BD10B50A4617
:103AB000002103685B085B0003600168144B194038
:103AC0009468240253682343194301600F24240699
:103AD0001368A343036103680124234303600021A7
:103AE0008160C160146993692343194681608368CA
:103AF0000124E40323438360D16803680B4303601C
:103B00004168044B194053691943416010BD0000DE
:103B1000FFE0CF00FF7FFF07002905D042680123A7
:103B20005B031A43426004E0426801235B039A434B
:103B300042607047F0B50C460021416805680126D7
:103B400076053540B54204D1012A02D11506AB42B3
:103B50000DD0074D2940A505AD0D1604FF273F04E4
:103B60003E4035431D43059E354329434160F0BD2A
:103B7000009800FC00245021B448FCF7F8FA142106
:103B8000B348FCF7F4FA00F073FEFFF7BDFAFFF755
:103B90007DFEFEF7F1F9FFF7E5FA00F0ADFE00F06B
:103BA00087FC00BF01221146002000F047FD0022E3
:103BB0000121104600F042FD01221146002000F0D4
:103BC0003DFD002404E02046FCF786FF601CC4B2E3
:103BD000012CF8DB08219F48FFF71AFF00280FD0BF
:103BE00000209D49087000221521104600F026FD96
:103BF0009A489B4908609948F7309A4908600EE056
:103C000001209549087001221521002000F016FDC1
:103C100095489349086094488B309249086019216F
:103C2000002000F08BFC9149086091A293A196A01E
:103C3000FDF724FD00219CA0FDF720FD86480178BA
:103C40009DA0FDF71BFD89480168A0A0FDF716FDAA
:103C50000120FEF7F3FD002800D0A3E7002407E0D1
:103C6000204600F07DFB002800D09BE7601CC4B21A
:103C7000012CF5DB012149027648FFF705FE0024FF
:103C800007E0A01CC1B20122204600F0D7FC601C56
:103C9000C4B2012CF5DB0120FFF7F2FA002407E0A3
:103CA0002046FFF70DFB002800D07BE7601CC4B264
:103CB000012CF5DB00228A498A4800F0B7FFFFF7A4
:103CC0001DFD3420FFF7B2FC874888490968016070
:103CD000FFF7B2FC01228249824800F0A7FF84A0CE
:103CE000FDF7CCFC8048016889A0FDF7C7FCACE07B
:103CF0008C480078002825D000208A4908701422BA
:103D000052495348FCF71AFA50215048FCF72FFA51
:103D10004F488079002802D001280ED106E000200B
:103D2000FEF766F9002800D03CE706E00120FEF728
:103D30005FF9002800D035E700BF00BF14214448D8
:103D4000FCF715FA78480078002840D1FDF7E6F82E
:103D50007649087008460078012806D174A0FDF75E
:103D60008DFC0020764908701CE770480078002818
:103D700029D174488268C1681046FCF7A9FB5A49EA
:103D8000086000225649574800F050FFFFF7B6FC84
:103D90003420FFF74BFC5548FFF76CFC002406E08D
:103DA000514801685148FFF7BBFC601CC4B2052CA8
:103DB000F6DBFFF741FC012249494A4800F036FF93
:103DC00001205949087060A0FDF758FC3DE06448A7
:103DD0000078002839D000206149087061480078D7
:103DE00000280AD05F4801785FA0FDF747FC00205B
:103DF0005C4908706249087027E000205949087042
:103E00005F480078401C5E490870084601785DA054
:103E1000FDF734FC5A480078052808DD0020584991
:103E200008705FA0FDF72AFC00203F4908703E485B
:103E30000078002809D000220621104600F0FEFB81
:103E400001220621002000F0F9FB51E714030020B5
:103E50007803002000040048080000206C180000CF
:103E6000180000201C000020611E0000200000201F
:103E700030393A33383A3137000000004175672055
:103E80002034203230323200736F6674776172658D
:103E90002076657273696F6E2025732025732076F6
:103EA000312E320D0A00000074657374206D6F644A
:103EB000653A2025640D0A00667067612073656CA1
:103EC000656374203A2025640D0A000066706761FE
:103ED0002076657273696F6E203A202564000000B9
:103EE00005010500003801403000002000A0000856
:103EF00064656661756C74206672657120696E69AF
:103F00007420636F6D706C6174650D0A00000000B1
:103F100064656661756C742066726571203A20254F
:103F2000640D0A00010000200900002007000020A5
:103F300073796E632074696D656F75740D0A000086
:103F4000C803002040020020667067612073776517
:103F5000657020636F6D706C6174650D0A00000000
:103F60000400002006000020667067612073796EEF
:103F70006320636F756E74203A2025640000000092
:103F80000500002066706761206E6F742073796E83
:103F90006320636F756E74203A2025640D0A00005B
:103FA000667067612073796E6320616761696E0D69
:103FB0000A00000000218278002A27D0184A032333
:103FC0001B02D21803789B109B00D15802789207ED
:103FD000D30EFF229A400B4693431946427892072C
:103FE000120E03789B07DB0E9A4011430C4A032301
:103FF0001B02D21803789B109B00D1500278D30685
:10400000DB0E01229A40064B1A6007E00278D306C5
:10401000DB0E01229A40024B80331A607047000089
:1040200000E100E030B597B005460024182110A843
:10403000FCF79DF8072409E02146012000F07EFAF4
:10404000E11F890004AA5050601CC4B2132CF3DB9A
:10405000002418E0200104A90958A000401C800099
:1040600004AA10580918A000801C800010580918D4
:10407000A000C01C8000105808188008A10001AAE8
:104080005050601CC4B2032CE4DB00240DE0A000FF
:1040900001A908581499884205D9A00001A9085817
:1040A000149010A80470601CC4B2032CEFDB18221B
:1040B00010A92846FCF742F817B030BD002905D0FA
:1040C000054A52690243044B5A6104E0024A5269AC
:1040D0008243014B5A61704700100240002905D00D
:1040E000054AD2690243044BDA6104E0024AD2690C
:1040F0008243014BDA61704700100240002905D06D
:10410000054A12690243044B1A6104E0024A12692B
:104110008243014B1A61704700100240002905D00C
:10412000054A92690243044B9A6104E0024A92698B
:104130008243014B9A61704700100240002905D06C
:10414000054AD2680243044BDA6004E0024AD268AE
:104150008243014BDA60704700100240FEB504460E
:10416000002500200290002700260190009077484B
:1041700040680C2108400546002D04D0042D05D0D0
:10418000082D2BD105E0724820602AE0704820609D
:1041900027E06E4840680F218904084006466B48B6
:1041A00040680321C90308400190B00C861C0198A7
:1041B000002804D130466749484300900BE063482B
:1041C000C06A0007000F401C029061480299FBF78B
:1041D0008BFF704300900098206002E05C482060F4
:1041E00000BF00BF59484068F021084005462D092E
:1041F0005948475D2068F84060605448406807218E
:104200000902084005462D0A5348475D6068F8409A
:10421000A0604E48006BFF2101310840884202D067
:104220004E48E0600DE0494840680121890308409C
:10423000884203D0A0684008E06002E0A0688008DF
:10424000E0604248006B10210840102802D040482E
:10425000606101E0206860613C48006B8007800F6E
:10426000002802D1A068A06119E03848006B8007DF
:10427000800F012802D12068A06110E03348006B54
:104280008007800F022802D18003A06107E02F4839
:10429000006B8007800F032801D12D48A0612B48B7
:1042A000006B032109040840002802D1A068E061E6
:1042B00020E02648006B032109040840012109047D
:1042C000884202D12068E06114E02048006B03219D
:1042D0000904084001214904884202D18010E061AC
:1042E00008E01A48006B032109040840884201D104
:1042F0001748E0611548006B032189040840002835
:1043000002D1A068206220E01048006B03218904DC
:10431000084001218904884202D12068206214E00B
:104320000A48006B0321890408400121C90488421E
:1043300002D10011206208E00448006B03218904C7
:104340000840884201D102482062FEBD00100240B0
:1043500000127A0000093D0000030020809FD50074
:1043600070B5044600250020344908600BE0334B4B
:10437000334A00212046FCF7C5FA32480068401C49
:104380003049086000BF2D480068012804D02D483E
:1043900000682D498842EAD32A4800682A498842A1
:1043A00007D2002027490860214628A0FDF766F9BA
:1043B0000DE00020234908600021FF200930604300
:1043C000274A1154214627A0FDF758F9012500205E
:1043D0002A4908600BE0294B294A00212046FCF7B6
:1043E00091FA18480068401C1649086000BF13483D
:1043F0000068012804D01348006813498842EAD3B2
:10440000104800681049884207D200200D49086012
:1044100021461CA0FDF732F90DE000200949086093
:104420000021FF20093060430D4A115421461AA093
:10443000FDF724F90125284670BD00005802002030
:10444000600120001000002020A1070041442564E5
:10445000205258206973206C6F636B0D0A000000B6
:10446000C803002041442564205258206973206EFF
:104470006F74206C6F636B0D0A0000005C020020FB
:104480006000200041442564205458206973206C4A
:104490006F636B0D0A0000004144256420545820CE
:1044A0006973206E6F74206C6F636B0D0A000000DF
:1044B0001CB501214804FFF701FE01218804FFF724
:1044C000FDFDA0200090012168460171032141718A
:1044D00000218171C17169460920C006FFF750FAB9
:1044E00040200090002168460171032141710021A4
:1044F000C17169460920C006FFF742FA10200090FA
:10450000012168460171032141710021817101215E
:10451000C17169460920C006FFF732FA102109204F
:10452000C006FFF7B1F920210920C006FFF7AAF95C
:1045300080210920C006FFF7A5F91CBDF8B5074684
:104540000D46002400263846FCF7BCFA202109203D
:10455000C006FFF799F900BF00BF10210920C0066F
:10456000FFF790F920210920C006FFF78BF9802181
:104570000920C006FFF788F900BF00BF20210920ED
:10458000C006FFF781F900BF00BF00241FE0202113
:104590000920C006FFF776F9402020412840002876
:1045A00005D080210920C006FFF76EF904E08021C4
:1045B0000920C006FFF766F900BF00BF20210920CF
:1045C000C006FFF761F900BF00BF601CC4B2072C32
:1045D000DDDB00241BE020210920C006FFF752F993
:1045E00000BF00BF20210920C006FFF74DF9402180
:1045F0000920C006FFF70CFA002804D01720011B81
:1046000001208840064300BF00BF601CC4B2182CC4
:10461000E1DB10210920C006FFF736F9202109202F
:10462000C006FFF72FF980210920C006FFF72AF9FD
:1046300000BF00BF00BF00BF3046F8BDF8B5074659
:104640000D46164600243846FCF73CFA2021092086
:10465000C006FFF719F900BF00BF10210920C006EE
:10466000FFF710F920210920C006FFF70BF9802180
:104670000920C006FFF706F900BF00BF202109206E
:10468000C006FFF701F900BF00BF00241FE0202192
:104690000920C006FFF7F6F84020204128400028F6
:1046A00005D080210920C006FFF7EEF804E0802144
:1046B0000920C006FFF7E6F800BF00BF202109204F
:1046C000C006FFF7E1F800BF00BF601CC4B2072CB2
:1046D000DDDB002420E020210920C006FFF7D2F80E
:1046E0000120C00520413040002805D0802109204C
:1046F000C006FFF7C9F804E080210920C006FFF7D3
:10470000C1F800BF00BF20210920C006FFF7BCF898
:1047100000BF00BF601CC4B2182CDCDB10210920D4
:10472000C006FFF7B1F820210920C006FFF7AAF85C
:1047300080210920C006FFF7A5F800BF00BF00BF19
:1047400000BFF8BD30B500228B071C0F0F23A3401C
:104750001A460B4B8C10A4001B599343084C8D1028
:10476000AD00635123468C10A4001B598C07250F04
:104770000446AC402343024C8D10AD00635130BD64
:1047800008000140002904D0028801231A43028056
:1047900003E00288014B1A4002807047FEFF0000D0
:1047A000002A03D083890B43838102E083898B43F2
:1047B00083817047CA430282704730B502460020A9
:1047C00000230024158A0D402B4695890D402C4668
:1047D000002B03D0002C01D0012000E0002030BDD0
:1047E000018582827047000000220288184B98429F
:1047F00006D001239B07984202D0164B984203D162
:10480000154B1A404B881A43144B984203D0144B53
:104810001A400B891A4302804B68C3620B880385D8
:104820000B4B984208D00F4B984205D00E4B984244
:1048300002D00E4B984208D14B88102B03D18B7AB3
:104840005B1C038601E08B7A038601238382704719
:10485000002C0140000400408FFF000000100040C9
:10486000FFFC0000004001400044014000480140BE
:104870001FB5002401210220FFF730FC7D214902F1
:1048800014480068FBF730FC401E84B212480290C6
:104890000021684681808181C18001A90F48FFF70E
:1048A000A3FF012221460D48FFF79AFF1021684619
:1048B00001700021417001218170FFF77BFB012213
:1048C00011460648FFF76CFF01210448FFF75AFF25
:1048D0001FBD0000EC020020FFF9000000040040B2
:1048E00004480068002804D002480068401E0149BE
:1048F00008607047DC02002000B589B0012148043F
:10490000FFF7DCFB01214804FFF7E8FB01218803E6
:10491000FFF704FC012202210920C006FFF782F8FC
:10492000012203210920C006FFF77CF8012209219A
:10493000C806FFF777F801220A210920C006FFF711
:1049400071F80C200090022168460171012141712B
:1049500000218171C17169460920C006FFF710F876
:10496000032040020090022168460171012141713B
:1049700000218171C17169460920C006FFF700F866
:104980001D4800F049F8E120400203900020049007
:104990000590069008900C20079003A9164800F097
:1049A000C9F8164800F038F8E120400203900020D2
:1049B00004900590069008900C20079003A90F48DA
:1049C00000F0B8F81B2168460172002141720121F4
:1049D000817202A8FFF7EEFA0121074800F094F86F
:1049E0000121064800F090F801220549024800F034
:1049F0001DF909B000BD000000380140004400402E
:104A0000050105000146888CC005C00D7047CA0528
:104A1000D20D02857047000010B50446324884422A
:104A200009D101218803FFF789FB002101208003C0
:104A3000FFF784FB56E02D48844209D10121480448
:104A4000FFF75CFB002101204004FFF757FB49E022
:104A50002748844209D101218804FFF74FFB002138
:104A600001208004FFF74AFB3CE02248844209D140
:104A70000121C804FFF742FB00210120C004FFF719
:104A80003DFB2FE01C48844209D101210805FFF7B6
:104A900035FB002101200005FFF730FB22E017481D
:104AA000844208D101212020FFF748FB002120206B
:104AB000FFF744FB16E01248844208D10121402050
:104AC000FFF73CFB00214020FFF738FB0AE00D48D0
:104AD000844207D101218020FFF730FB0021802094
:104AE000FFF72CFB10BD00000038014000440040DF
:104AF00000480040004C00400050004000140140BD
:104B000000180140001C0140002904D00268012364
:104B10001A43026003E002685208520002607047C4
:104B200002460020D3690B40002B01D0012000E099
:104B300000207047F0B58BB004460D4600270020DA
:104B40000A90002620684008400020606668032123
:104B50000903304688430646A8680643666026680F
:104B60002D480640E96868680843296908430643F8
:104B70002660A66803210902304688430646686914
:104B80000643A6606846FFF7E9FA2448844202D14A
:104B900006980A900DE02248844202D107980A90B4
:104BA00007E02048844202D108980A9001E0029868
:104BB0000A9020680121C903084000280CD0296808
:104BC0000A9A5000FBF790FA074629680A9A5000A3
:104BD000FBF78AFA0E4609E029680A98FBF784FA7F
:104BE000074629680A98FBF77FFA0E4628684008AE
:104BF000B04200D87F1C20680121C903084000286A
:104C000006D03807460F3846074908403043074664
:104C1000A7810BB0F0BD0000F3E9FFFF00380140B1
:104C20000044004000480040F0FF0000F8B5034693
:104C30000024002600960025002018460E04340E9D
:104C4000CEB200960127009EB7403D46022C01D10E
:104C5000001D02E0032C00D10830002A03D00668B2
:104C60002E43066002E00668AE430660F8BD70B5EC
:104C700002460B4600240021002500201E04350EAC
:104C8000D9B201268E403146012D02D1166831403D
:104C900006E0022D02D15668314001E096683140AD
:104CA0001C0C0126A6403446D6693440002903D0A6
:104CB000002C01D0012000E0002070BDDC4C000879
:104CC000000000201403000020070008004E000828
:104CD00014030020BC050000DA16000801405A0148
:104CE000045A02045A03045A04045A05045A0604D6
:104CF0005A07045A08045A09045A0A045A0B045A57
:104D00000C045A0D045A0E045A0F04296E3A107CF2
:104D100012023A110E12023A127C12023A137C125B
:104D2000023A147C12023A157C12023A167C1202E4
:104D30004A173F112A18401908321914FFFF0F2A89
:104D4000FF1019CD1A08616A83E019104AFC71B985
:104D50001029F4691059917910DA1C201A20108B4F
:104D6000D0FC101A04108B4147101A40109A0330DF
:104D70002910A940091E80DBFC0720191079203179
:104D80008CB002202031CB940410AAD41019111A2F
:104D900008606AC31022FF5AFF01012005118B43EE
:104DA0004341124013200512023A040812051A2842
:104DB00008232F801A30081119081A08081460E314
:104DC000161C8011208C1E22228410202E59383B64
:104DD0000503384129385A2E385A233814801A06C8
:104DE0001A18080C10107A0740717AA005317B6CF4
:104DF000DC1B680901020304060708090CA910005E
:04000005080000B936
:00000001FF
